{
  "_format": "hh-sol-artifact-1",
  "contractName": "ToDoList",
  "sourceName": "contracts/ToDoList.sol",
  "abi": [
    {
      "inputs": [],
      "stateMutability": "nonpayable",
      "type": "constructor"
    },
    {
      "anonymous": false,
      "inputs": [
        {
          "indexed": true,
          "internalType": "address",
          "name": "account",
          "type": "address"
        },
        {
          "indexed": true,
          "internalType": "uint256",
          "name": "userId",
          "type": "uint256"
        },
        {
          "indexed": false,
          "internalType": "string",
          "name": "message",
          "type": "string"
        },
        {
          "indexed": false,
          "internalType": "bool",
          "name": "completed",
          "type": "bool"
        }
      ],
      "name": "ToDoEvent",
      "type": "event"
    },
    {
      "inputs": [],
      "name": "_idUser",
      "outputs": [
        {
          "internalType": "uint256",
          "name": "",
          "type": "uint256"
        }
      ],
      "stateMutability": "view",
      "type": "function"
    },
    {
      "inputs": [
        {
          "internalType": "string",
          "name": "_message",
          "type": "string"
        }
      ],
      "name": "createList",
      "outputs": [],
      "stateMutability": "nonpayable",
      "type": "function"
    },
    {
      "inputs": [
        {
          "internalType": "uint256",
          "name": "",
          "type": "uint256"
        }
      ],
      "name": "creators",
      "outputs": [
        {
          "internalType": "address",
          "name": "",
          "type": "address"
        }
      ],
      "stateMutability": "view",
      "type": "function"
    },
    {
      "inputs": [],
      "name": "getAddress",
      "outputs": [
        {
          "internalType": "address[]",
          "name": "",
          "type": "address[]"
        }
      ],
      "stateMutability": "view",
      "type": "function"
    },
    {
      "inputs": [
        {
          "internalType": "address",
          "name": "_address",
          "type": "address"
        }
      ],
      "name": "getCreatorData",
      "outputs": [
        {
          "internalType": "address",
          "name": "",
          "type": "address"
        },
        {
          "internalType": "uint256",
          "name": "",
          "type": "uint256"
        },
        {
          "internalType": "string",
          "name": "",
          "type": "string"
        },
        {
          "internalType": "bool",
          "name": "",
          "type": "bool"
        }
      ],
      "stateMutability": "view",
      "type": "function"
    },
    {
      "inputs": [],
      "name": "getMessage",
      "outputs": [
        {
          "internalType": "string[]",
          "name": "",
          "type": "string[]"
        }
      ],
      "stateMutability": "view",
      "type": "function"
    },
    {
      "inputs": [
        {
          "internalType": "uint256",
          "name": "",
          "type": "uint256"
        }
      ],
      "name": "message",
      "outputs": [
        {
          "internalType": "string",
          "name": "",
          "type": "string"
        }
      ],
      "stateMutability": "view",
      "type": "function"
    },
    {
      "inputs": [
        {
          "internalType": "uint256",
          "name": "",
          "type": "uint256"
        }
      ],
      "name": "messageId",
      "outputs": [
        {
          "internalType": "uint256",
          "name": "",
          "type": "uint256"
        }
      ],
      "stateMutability": "view",
      "type": "function"
    },
    {
      "inputs": [],
      "name": "ownerOfContract",
      "outputs": [
        {
          "internalType": "address",
          "name": "",
          "type": "address"
        }
      ],
      "stateMutability": "view",
      "type": "function"
    },
    {
      "inputs": [
        {
          "internalType": "address",
          "name": "",
          "type": "address"
        }
      ],
      "name": "toDoListApps",
      "outputs": [
        {
          "internalType": "address",
          "name": "account",
          "type": "address"
        },
        {
          "internalType": "uint256",
          "name": "userId",
          "type": "uint256"
        },
        {
          "internalType": "string",
          "name": "message",
          "type": "string"
        },
        {
          "internalType": "bool",
          "name": "completed",
          "type": "bool"
        }
      ],
      "stateMutability": "view",
      "type": "function"
    },
    {
      "inputs": [
        {
          "internalType": "address",
          "name": "_creator",
          "type": "address"
        }
      ],
      "name": "toggle",
      "outputs": [],
      "stateMutability": "nonpayable",
      "type": "function"
    }
  ],
  "bytecode": "0x608060405234801561001057600080fd5b5033600160006101000a81548173ffffffffffffffffffffffffffffffffffffffff021916908373ffffffffffffffffffffffffffffffffffffffff160217905550611391806100616000396000f3fe608060405234801561001057600080fd5b50600436106100a95760003560e01c806374310d081161007157806374310d081461016957806394432cc51461019c578063b8dcc68f146101ba578063cd53d08e146101d6578063ce6d41de14610206578063d1e8507b14610224576100a9565b80630d64e697146100ae57806321e47d46146100e157806338cc483114610111578063468229ae1461012f578063588f9acc1461014d575b600080fd5b6100c860048036038101906100c39190610a5d565b610254565b6040516100d89493929190610b5d565b60405180910390f35b6100fb60048036038101906100f69190610bd5565b6103d9565b6040516101089190610c02565b60405180910390f35b6101196103fd565b6040516101269190610cdb565b60405180910390f35b61013761048b565b6040516101449190610cfd565b60405180910390f35b61016760048036038101906101629190610a5d565b6104b1565b005b610183600480360381019061017e9190610a5d565b610526565b6040516101939493929190610b5d565b60405180910390f35b6101a461060b565b6040516101b19190610c02565b60405180910390f35b6101d460048036038101906101cf9190610d7d565b610611565b005b6101f060048036038101906101eb9190610bd5565b610818565b6040516101fd9190610cfd565b60405180910390f35b61020e610857565b60405161021b9190610ed6565b60405180910390f35b61023e60048036038101906102399190610bd5565b610930565b60405161024b9190610ef8565b60405180910390f35b6000806060600080600560008773ffffffffffffffffffffffffffffffffffffffff1673ffffffffffffffffffffffffffffffffffffffff1681526020019081526020016000206040518060800160405290816000820160009054906101000a900473ffffffffffffffffffffffffffffffffffffffff1673ffffffffffffffffffffffffffffffffffffffff1673ffffffffffffffffffffffffffffffffffffffff1681526020016001820154815260200160028201805461031690610f49565b80601f016020809104026020016040519081016040528092919081815260200182805461034290610f49565b801561038f5780601f106103645761010080835404028352916020019161038f565b820191906000526020600020905b81548152906001019060200180831161037257829003601f168201915b505050505081526020016003820160009054906101000a900460ff161515151581525050905080600001518160200151826040015183606001519450945094509450509193509193565b600481815481106103e957600080fd5b906000526020600020016000915090505481565b6060600280548060200260200160405190810160405280929190818152602001828054801561048157602002820191906000526020600020905b8160009054906101000a900473ffffffffffffffffffffffffffffffffffffffff1673ffffffffffffffffffffffffffffffffffffffff1681526020019060010190808311610437575b5050505050905090565b600160009054906101000a900473ffffffffffffffffffffffffffffffffffffffff1681565b6000600560008373ffffffffffffffffffffffffffffffffffffffff1673ffffffffffffffffffffffffffffffffffffffff16815260200190815260200160002090508060030160009054906101000a900460ff16158160030160006101000a81548160ff0219169083151502179055505050565b60056020528060005260406000206000915090508060000160009054906101000a900473ffffffffffffffffffffffffffffffffffffffff169080600101549080600201805461057590610f49565b80601f01602080910402602001604051908101604052809291908181526020018280546105a190610f49565b80156105ee5780601f106105c3576101008083540402835291602001916105ee565b820191906000526020600020905b8154815290600101906020018083116105d157829003601f168201915b5050505050908060030160009054906101000a900460ff16905084565b60005481565b6106196109dc565b6000805490506000600560003373ffffffffffffffffffffffffffffffffffffffff1673ffffffffffffffffffffffffffffffffffffffff1681526020019081526020016000209050338160000160006101000a81548173ffffffffffffffffffffffffffffffffffffffff021916908373ffffffffffffffffffffffffffffffffffffffff16021790555083838260020191826106b8929190611160565b5060008160030160006101000a81548160ff0219169083151502179055508181600101819055506002339080600181540180825580915050600190039060005260206000200160009091909190916101000a81548173ffffffffffffffffffffffffffffffffffffffff021916908373ffffffffffffffffffffffffffffffffffffffff160217905550600384849091806001815401808255809150506001900390600052602060002001600090919290919290919290919250918261077f929190611160565b50600482908060018154018082558091505060019003906000526020600020016000909190919091505580600101543373ffffffffffffffffffffffffffffffffffffffff167f97cb199a6fede85e8843b14a3b82273a76130b0e671f8803ce27aa90d52ee114836002018460030160009054906101000a900460ff1660405161080a9291906112b4565b60405180910390a350505050565b6002818154811061082857600080fd5b906000526020600020016000915054906101000a900473ffffffffffffffffffffffffffffffffffffffff1681565b60606003805480602002602001604051908101604052809291908181526020016000905b8282101561092757838290600052602060002001805461089a90610f49565b80601f01602080910402602001604051908101604052809291908181526020018280546108c690610f49565b80156109135780601f106108e857610100808354040283529160200191610913565b820191906000526020600020905b8154815290600101906020018083116108f657829003601f168201915b50505050508152602001906001019061087b565b50505050905090565b6003818154811061094057600080fd5b90600052602060002001600091509050805461095b90610f49565b80601f016020809104026020016040519081016040528092919081815260200182805461098790610f49565b80156109d45780601f106109a9576101008083540402835291602001916109d4565b820191906000526020600020905b8154815290600101906020018083116109b757829003601f168201915b505050505081565b6000808154809291906109ee90611313565b9190505550565b600080fd5b600080fd5b600073ffffffffffffffffffffffffffffffffffffffff82169050919050565b6000610a2a826109ff565b9050919050565b610a3a81610a1f565b8114610a4557600080fd5b50565b600081359050610a5781610a31565b92915050565b600060208284031215610a7357610a726109f5565b5b6000610a8184828501610a48565b91505092915050565b610a9381610a1f565b82525050565b6000819050919050565b610aac81610a99565b82525050565b600081519050919050565b600082825260208201905092915050565b60005b83811015610aec578082015181840152602081019050610ad1565b60008484015250505050565b6000601f19601f8301169050919050565b6000610b1482610ab2565b610b1e8185610abd565b9350610b2e818560208601610ace565b610b3781610af8565b840191505092915050565b60008115159050919050565b610b5781610b42565b82525050565b6000608082019050610b726000830187610a8a565b610b7f6020830186610aa3565b8181036040830152610b918185610b09565b9050610ba06060830184610b4e565b95945050505050565b610bb281610a99565b8114610bbd57600080fd5b50565b600081359050610bcf81610ba9565b92915050565b600060208284031215610beb57610bea6109f5565b5b6000610bf984828501610bc0565b91505092915050565b6000602082019050610c176000830184610aa3565b92915050565b600081519050919050565b600082825260208201905092915050565b6000819050602082019050919050565b610c5281610a1f565b82525050565b6000610c648383610c49565b60208301905092915050565b6000602082019050919050565b6000610c8882610c1d565b610c928185610c28565b9350610c9d83610c39565b8060005b83811015610cce578151610cb58882610c58565b9750610cc083610c70565b925050600181019050610ca1565b5085935050505092915050565b60006020820190508181036000830152610cf58184610c7d565b905092915050565b6000602082019050610d126000830184610a8a565b92915050565b600080fd5b600080fd5b600080fd5b60008083601f840112610d3d57610d3c610d18565b5b8235905067ffffffffffffffff811115610d5a57610d59610d1d565b5b602083019150836001820283011115610d7657610d75610d22565b5b9250929050565b60008060208385031215610d9457610d936109f5565b5b600083013567ffffffffffffffff811115610db257610db16109fa565b5b610dbe85828601610d27565b92509250509250929050565b600081519050919050565b600082825260208201905092915050565b6000819050602082019050919050565b600082825260208201905092915050565b6000610e1282610ab2565b610e1c8185610df6565b9350610e2c818560208601610ace565b610e3581610af8565b840191505092915050565b6000610e4c8383610e07565b905092915050565b6000602082019050919050565b6000610e6c82610dca565b610e768185610dd5565b935083602082028501610e8885610de6565b8060005b85811015610ec45784840389528151610ea58582610e40565b9450610eb083610e54565b925060208a01995050600181019050610e8c565b50829750879550505050505092915050565b60006020820190508181036000830152610ef08184610e61565b905092915050565b60006020820190508181036000830152610f128184610b09565b905092915050565b7f4e487b7100000000000000000000000000000000000000000000000000000000600052602260045260246000fd5b60006002820490506001821680610f6157607f821691505b602082108103610f7457610f73610f1a565b5b50919050565b600082905092915050565b7f4e487b7100000000000000000000000000000000000000000000000000000000600052604160045260246000fd5b60008190508160005260206000209050919050565b60006020601f8301049050919050565b600082821b905092915050565b6000600883026110167fffffffffffffffffffffffffffffffffffffffffffffffffffffffffffffffff82610fd9565b6110208683610fd9565b95508019841693508086168417925050509392505050565b6000819050919050565b600061105d61105861105384610a99565b611038565b610a99565b9050919050565b6000819050919050565b61107783611042565b61108b61108382611064565b848454610fe6565b825550505050565b600090565b6110a0611093565b6110ab81848461106e565b505050565b5b818110156110cf576110c4600082611098565b6001810190506110b1565b5050565b601f821115611114576110e581610fb4565b6110ee84610fc9565b810160208510156110fd578190505b61111161110985610fc9565b8301826110b0565b50505b505050565b600082821c905092915050565b600061113760001984600802611119565b1980831691505092915050565b60006111508383611126565b9150826002028217905092915050565b61116a8383610f7a565b67ffffffffffffffff81111561118357611182610f85565b5b61118d8254610f49565b6111988282856110d3565b6000601f8311600181146111c757600084156111b5578287013590505b6111bf8582611144565b865550611227565b601f1984166111d586610fb4565b60005b828110156111fd578489013582556001820191506020850194506020810190506111d8565b8683101561121a5784890135611216601f891682611126565b8355505b6001600288020188555050505b50505050505050565b6000815461123d81610f49565b6112478186610abd565b945060018216600081146112625760018114611278576112ab565b60ff1983168652811515602002860193506112ab565b61128185610fb4565b60005b838110156112a357815481890152600182019150602081019050611284565b808801955050505b50505092915050565b600060408201905081810360008301526112ce8185611230565b90506112dd6020830184610b4e565b9392505050565b7f4e487b7100000000000000000000000000000000000000000000000000000000600052601160045260246000fd5b600061131e82610a99565b91507fffffffffffffffffffffffffffffffffffffffffffffffffffffffffffffffff82036113505761134f6112e4565b5b60018201905091905056fea2646970667358221220b12935b1ffbbf4671407942c3d107e34a62661967ff2c5f74ead21452605365b64736f6c63430008110033",
  "linkReferences": {},
  "deployedLinkReferences": {}
}